{
  "_format": "hh-sol-artifact-1",
  "contractName": "Auction",
  "sourceName": "contracts/DOSAuction.sol",
  "abi": [
    {
      "inputs": [],
      "name": "bid",
      "outputs": [],
      "stateMutability": "payable",
      "type": "function"
    },
    {
      "inputs": [],
      "name": "highestbidder",
      "outputs": [
        {
          "internalType": "address",
          "name": "",
          "type": "address"
        }
      ],
      "stateMutability": "view",
      "type": "function"
    },
    {
      "inputs": [],
      "name": "highestprice",
      "outputs": [
        {
          "internalType": "uint256",
          "name": "",
          "type": "uint256"
        }
      ],
      "stateMutability": "view",
      "type": "function"
    }
  ],
  "bytecode": "0x6080604052348015600f57600080fd5b5061043b8061001f6000396000f3fe6080604052600436106100345760003560e01c806305c10084146100395780631998aeef14610064578063dcbfb0ff1461006e575b600080fd5b34801561004557600080fd5b5061004e610099565b60405161005b9190610239565b60405180910390f35b61006c61009f565b005b34801561007a57600080fd5b506100836101fc565b6040516100909190610295565b60405180910390f35b60015481565b60015434116100e3576040517f08c379a00000000000000000000000000000000000000000000000000000000081526004016100da90610333565b60405180910390fd5b60008060009054906101000a900473ffffffffffffffffffffffffffffffffffffffff1673ffffffffffffffffffffffffffffffffffffffff1660015460405161012c90610384565b60006040518083038185875af1925050503d8060008114610169576040519150601f19603f3d011682016040523d82523d6000602084013e61016e565b606091505b50509050806101b2576040517f08c379a00000000000000000000000000000000000000000000000000000000081526004016101a9906103e5565b60405180910390fd5b34600181905550336000806101000a81548173ffffffffffffffffffffffffffffffffffffffff021916908373ffffffffffffffffffffffffffffffffffffffff16021790555050565b60008054906101000a900473ffffffffffffffffffffffffffffffffffffffff1681565b6000819050919050565b61023381610220565b82525050565b600060208201905061024e600083018461022a565b92915050565b600073ffffffffffffffffffffffffffffffffffffffff82169050919050565b600061027f82610254565b9050919050565b61028f81610274565b82525050565b60006020820190506102aa6000830184610286565b92915050565b600082825260208201905092915050565b7f4e65656420746f20706179206d6f7265207468616e207468652068696768657360008201527f7420626964646572212100000000000000000000000000000000000000000000602082015250565b600061031d602a836102b0565b9150610328826102c1565b604082019050919050565b6000602082019050818103600083015261034c81610310565b9050919050565b600081905092915050565b50565b600061036e600083610353565b91506103798261035e565b600082019050919050565b600061038f82610361565b9150819050919050565b7f4661696c656420746f2073656e6420746865206d6f6e6579206261636b000000600082015250565b60006103cf601d836102b0565b91506103da82610399565b602082019050919050565b600060208201905081810360008301526103fe816103c2565b905091905056fea26469706673582212202c6e15b42c641129c7177aa35c5e22855a2509d1069632e1e2c988b939c5b9d664736f6c634300081c0033",
  "linkReferences": {},
  "deployedLinkReferences": {}
}