{
  "_format": "hh-sol-artifact-1",
  "contractName": "ReentrancyBank",
  "sourceName": "contracts/ReentrancyVulnerable.sol",
  "abi": [
    {
      "inputs": [
        {
          "internalType": "address",
          "name": "",
          "type": "address"
        }
      ],
      "name": "accounts",
      "outputs": [
        {
          "internalType": "uint256",
          "name": "",
          "type": "uint256"
        }
      ],
      "stateMutability": "view",
      "type": "function"
    },
    {
      "inputs": [],
      "name": "deposit",
      "outputs": [],
      "stateMutability": "payable",
      "type": "function"
    },
    {
      "inputs": [],
      "name": "getTotalBalance",
      "outputs": [
        {
          "internalType": "uint256",
          "name": "",
          "type": "uint256"
        }
      ],
      "stateMutability": "view",
      "type": "function"
    },
    {
      "inputs": [
        {
          "internalType": "address",
          "name": "_called",
          "type": "address"
        }
      ],
      "name": "getUserBalance",
      "outputs": [
        {
          "internalType": "uint256",
          "name": "",
          "type": "uint256"
        }
      ],
      "stateMutability": "view",
      "type": "function"
    },
    {
      "inputs": [
        {
          "internalType": "uint256",
          "name": "_number",
          "type": "uint256"
        }
      ],
      "name": "withdraw",
      "outputs": [],
      "stateMutability": "nonpayable",
      "type": "function"
    }
  ],
  "bytecode": "0x6080604052348015600f57600080fd5b5061064e8061001f6000396000f3fe60806040526004361061004a5760003560e01c806312b583491461004f5780632e1a7d4d1461007a57806347734892146100a35780635e5c06e2146100e0578063d0e30db01461011d575b600080fd5b34801561005b57600080fd5b50610064610127565b6040516100719190610382565b60405180910390f35b34801561008657600080fd5b506100a1600480360381019061009c91906103ce565b61012f565b005b3480156100af57600080fd5b506100ca60048036038101906100c59190610459565b6102b2565b6040516100d79190610382565b60405180910390f35b3480156100ec57600080fd5b5061010760048036038101906101029190610459565b6102fa565b6040516101149190610382565b60405180910390f35b610125610312565b005b600047905090565b806000803373ffffffffffffffffffffffffffffffffffffffff1673ffffffffffffffffffffffffffffffffffffffff1681526020019081526020016000205410156101b0576040517f08c379a00000000000000000000000000000000000000000000000000000000081526004016101a7906104e3565b60405180910390fd5b60003373ffffffffffffffffffffffffffffffffffffffff1682620493e0906040516101db90610534565b600060405180830381858888f193505050503d8060008114610219576040519150601f19603f3d011682016040523d82523d6000602084013e61021e565b606091505b5050905080610262576040517f08c379a000000000000000000000000000000000000000000000000000000000815260040161025990610595565b60405180910390fd5b816000803373ffffffffffffffffffffffffffffffffffffffff1673ffffffffffffffffffffffffffffffffffffffff168152602001908152602001600020600082825403925050819055505050565b60008060008373ffffffffffffffffffffffffffffffffffffffff1673ffffffffffffffffffffffffffffffffffffffff168152602001908152602001600020549050919050565b60006020528060005260406000206000915090505481565b346000803373ffffffffffffffffffffffffffffffffffffffff1673ffffffffffffffffffffffffffffffffffffffff168152602001908152602001600020600082825461036091906105e4565b92505081905550565b6000819050919050565b61037c81610369565b82525050565b60006020820190506103976000830184610373565b92915050565b600080fd5b6103ab81610369565b81146103b657600080fd5b50565b6000813590506103c8816103a2565b92915050565b6000602082840312156103e4576103e361039d565b5b60006103f2848285016103b9565b91505092915050565b600073ffffffffffffffffffffffffffffffffffffffff82169050919050565b6000610426826103fb565b9050919050565b6104368161041b565b811461044157600080fd5b50565b6000813590506104538161042d565b92915050565b60006020828403121561046f5761046e61039d565b5b600061047d84828501610444565b91505092915050565b600082825260208201905092915050565b7f4e656564204d6f72652046756e64732121000000000000000000000000000000600082015250565b60006104cd601183610486565b91506104d882610497565b602082019050919050565b600060208201905081810360008301526104fc816104c0565b9050919050565b600081905092915050565b50565b600061051e600083610503565b91506105298261050e565b600082019050919050565b600061053f82610511565b9150819050919050565b7f43616e27742073656e6420746865206d6f6e6579000000000000000000000000600082015250565b600061057f601483610486565b915061058a82610549565b602082019050919050565b600060208201905081810360008301526105ae81610572565b9050919050565b7f4e487b7100000000000000000000000000000000000000000000000000000000600052601160045260246000fd5b60006105ef82610369565b91506105fa83610369565b9250828201905080821115610612576106116105b5565b5b9291505056fea26469706673582212203e028194c1ec40a9d22f2732eb6721fc64bcff3b58c55a452187f7562731e66f64736f6c634300081c0033",
  "linkReferences": {},
  "deployedLinkReferences": {}
}