{
  "_format": "hh-sol-artifact-1",
  "contractName": "Cheater",
  "sourceName": "contracts/DOSAuctionCheater.sol",
  "abi": [
    {
      "inputs": [
        {
          "internalType": "contract IAuction",
          "name": "_auction",
          "type": "address"
        }
      ],
      "stateMutability": "nonpayable",
      "type": "constructor"
    },
    {
      "inputs": [],
      "name": "cheat",
      "outputs": [],
      "stateMutability": "payable",
      "type": "function"
    },
    {
      "stateMutability": "payable",
      "type": "receive"
    }
  ],
  "bytecode": "0x608060405234801561001057600080fd5b506040516102d03803806102d0833981810160405281019061003291906100ed565b806000806101000a81548173ffffffffffffffffffffffffffffffffffffffff021916908373ffffffffffffffffffffffffffffffffffffffff1602179055505061011a565b600080fd5b600073ffffffffffffffffffffffffffffffffffffffff82169050919050565b60006100a88261007d565b9050919050565b60006100ba8261009d565b9050919050565b6100ca816100af565b81146100d557600080fd5b50565b6000815190506100e7816100c1565b92915050565b60006020828403121561010357610102610078565b5b6000610111848285016100d8565b91505092915050565b6101a7806101296000396000f3fe6080604052600436106100225760003560e01c8063aa1b510e1461006757610062565b36610062576040517f08c379a000000000000000000000000000000000000000000000000000000000815260040161005990610151565b60405180910390fd5b600080fd5b61006f610071565b005b60008054906101000a900473ffffffffffffffffffffffffffffffffffffffff1673ffffffffffffffffffffffffffffffffffffffff16631998aeef346040518263ffffffff1660e01b81526004016000604051808303818588803b1580156100d957600080fd5b505af11580156100ed573d6000803e3d6000fd5b5050505050565b600082825260208201905092915050565b7f4e6f7420616363657074696e6720726566756e64732e00000000000000000000600082015250565b600061013b6016836100f4565b915061014682610105565b602082019050919050565b6000602082019050818103600083015261016a8161012e565b905091905056fea2646970667358221220e2227d40604f9f993ecc1311331dfbc796edb1bb66aa9513bf891710af7c087d64736f6c634300081c0033",
  "linkReferences": {},
  "deployedLinkReferences": {}
}