{
  "_format": "hh-sol-artifact-1",
  "contractName": "IOUBank",
  "sourceName": "contracts/IOUBank.sol",
  "abi": [
    {
      "inputs": [
        {
          "internalType": "address",
          "name": "",
          "type": "address"
        }
      ],
      "name": "accounts",
      "outputs": [
        {
          "internalType": "uint256",
          "name": "",
          "type": "uint256"
        }
      ],
      "stateMutability": "view",
      "type": "function"
    },
    {
      "inputs": [],
      "name": "deposit",
      "outputs": [],
      "stateMutability": "payable",
      "type": "function"
    },
    {
      "inputs": [],
      "name": "getTotalBalance",
      "outputs": [
        {
          "internalType": "uint256",
          "name": "",
          "type": "uint256"
        }
      ],
      "stateMutability": "view",
      "type": "function"
    },
    {
      "inputs": [
        {
          "internalType": "address",
          "name": "_called",
          "type": "address"
        }
      ],
      "name": "getUserBalance",
      "outputs": [
        {
          "internalType": "uint256",
          "name": "",
          "type": "uint256"
        }
      ],
      "stateMutability": "view",
      "type": "function"
    },
    {
      "inputs": [
        {
          "internalType": "uint256",
          "name": "_number",
          "type": "uint256"
        }
      ],
      "name": "withdraw",
      "outputs": [],
      "stateMutability": "nonpayable",
      "type": "function"
    }
  ],
  "bytecode": "0x6080604052348015600f57600080fd5b5061068b8061001f6000396000f3fe60806040526004361061004a5760003560e01c806312b583491461004f5780632e1a7d4d1461007a57806347734892146100a35780635e5c06e2146100e0578063d0e30db01461011d575b600080fd5b34801561005b57600080fd5b50610064610127565b604051610071919061038b565b60405180910390f35b34801561008657600080fd5b506100a1600480360381019061009c91906103d7565b61012f565b005b3480156100af57600080fd5b506100ca60048036038101906100c59190610462565b6102bb565b6040516100d7919061038b565b60405180910390f35b3480156100ec57600080fd5b5061010760048036038101906101029190610462565b610303565b604051610114919061038b565b60405180910390f35b61012561031b565b005b600047905090565b806000803373ffffffffffffffffffffffffffffffffffffffff1673ffffffffffffffffffffffffffffffffffffffff1681526020019081526020016000205410156101b0576040517f08c379a00000000000000000000000000000000000000000000000000000000081526004016101a7906104ec565b60405180910390fd5b806000803373ffffffffffffffffffffffffffffffffffffffff1673ffffffffffffffffffffffffffffffffffffffff16815260200190815260200160002060008282546101fe919061053b565b9250508190555060003373ffffffffffffffffffffffffffffffffffffffff1682620493e090604051610230906105a0565b600060405180830381858888f193505050503d806000811461026e576040519150601f19603f3d011682016040523d82523d6000602084013e610273565b606091505b50509050806102b7576040517f08c379a00000000000000000000000000000000000000000000000000000000081526004016102ae90610601565b60405180910390fd5b5050565b60008060008373ffffffffffffffffffffffffffffffffffffffff1673ffffffffffffffffffffffffffffffffffffffff168152602001908152602001600020549050919050565b60006020528060005260406000206000915090505481565b346000803373ffffffffffffffffffffffffffffffffffffffff1673ffffffffffffffffffffffffffffffffffffffff16815260200190815260200160002060008282546103699190610621565b92505081905550565b6000819050919050565b61038581610372565b82525050565b60006020820190506103a0600083018461037c565b92915050565b600080fd5b6103b481610372565b81146103bf57600080fd5b50565b6000813590506103d1816103ab565b92915050565b6000602082840312156103ed576103ec6103a6565b5b60006103fb848285016103c2565b91505092915050565b600073ffffffffffffffffffffffffffffffffffffffff82169050919050565b600061042f82610404565b9050919050565b61043f81610424565b811461044a57600080fd5b50565b60008135905061045c81610436565b92915050565b600060208284031215610478576104776103a6565b5b60006104868482850161044d565b91505092915050565b600082825260208201905092915050565b7f4e656564204d6f72652046756e64732121000000000000000000000000000000600082015250565b60006104d660118361048f565b91506104e1826104a0565b602082019050919050565b60006020820190508181036000830152610505816104c9565b9050919050565b7f4e487b7100000000000000000000000000000000000000000000000000000000600052601160045260246000fd5b600061054682610372565b915061055183610372565b92508282039050818111156105695761056861050c565b5b92915050565b600081905092915050565b50565b600061058a60008361056f565b91506105958261057a565b600082019050919050565b60006105ab8261057d565b9150819050919050565b7f43616e27742073656e6420746865206d6f6e6579000000000000000000000000600082015250565b60006105eb60148361048f565b91506105f6826105b5565b602082019050919050565b6000602082019050818103600083015261061a816105de565b9050919050565b600061062c82610372565b915061063783610372565b925082820190508082111561064f5761064e61050c565b5b9291505056fea264697066735822122007042583ab48f258072b9c84df1e2bdff715509de16964a9012c929eb5db188d64736f6c634300081c0033",
  "linkReferences": {},
  "deployedLinkReferences": {}
}