{
  "_format": "hh-sol-artifact-1",
  "contractName": "MyTest",
  "sourceName": "contracts/Token.sol",
  "abi": [
    {
      "inputs": [
        {
          "internalType": "uint256",
          "name": "_unlockedTime",
          "type": "uint256"
        }
      ],
      "stateMutability": "payable",
      "type": "constructor"
    },
    {
      "anonymous": false,
      "inputs": [
        {
          "indexed": false,
          "internalType": "uint256",
          "name": "amount",
          "type": "uint256"
        },
        {
          "indexed": false,
          "internalType": "uint256",
          "name": "time",
          "type": "uint256"
        }
      ],
      "name": "Widthrawal",
      "type": "event"
    },
    {
      "inputs": [],
      "name": "owner",
      "outputs": [
        {
          "internalType": "address payable",
          "name": "",
          "type": "address"
        }
      ],
      "stateMutability": "view",
      "type": "function"
    },
    {
      "inputs": [],
      "name": "unlockedTime",
      "outputs": [
        {
          "internalType": "uint256",
          "name": "",
          "type": "uint256"
        }
      ],
      "stateMutability": "view",
      "type": "function"
    },
    {
      "inputs": [],
      "name": "withdraw",
      "outputs": [],
      "stateMutability": "nonpayable",
      "type": "function"
    }
  ],
  "bytecode": "0x60806040526040516105b23803806105b2833981810160405281019061002591906100f0565b804210610067576040517f08c379a000000000000000000000000000000000000000000000000000000000815260040161005e9061017a565b60405180910390fd5b8060008190555033600160006101000a81548173ffffffffffffffffffffffffffffffffffffffff021916908373ffffffffffffffffffffffffffffffffffffffff1602179055505061019a565b600080fd5b6000819050919050565b6100cd816100ba565b81146100d857600080fd5b50565b6000815190506100ea816100c4565b92915050565b600060208284031215610106576101056100b5565b5b6000610114848285016100db565b91505092915050565b600082825260208201905092915050565b7f556e6c6f636b2074696d652073686f756c6420626520696e206675747572652e600082015250565b600061016460208361011d565b915061016f8261012e565b602082019050919050565b6000602082019050818103600083015261019381610157565b9050919050565b610409806101a96000396000f3fe608060405234801561001057600080fd5b50600436106100415760003560e01c80630e5c6f42146100465780633ccfd60b146100645780638da5cb5b1461006e575b600080fd5b61004e61008c565b60405161005b919061024a565b60405180910390f35b61006c610092565b005b61007661020b565b60405161008391906102a6565b60405180910390f35b60005481565b6000544210156100d7576040517f08c379a00000000000000000000000000000000000000000000000000000000081526004016100ce9061031e565b60405180910390fd5b600160009054906101000a900473ffffffffffffffffffffffffffffffffffffffff1673ffffffffffffffffffffffffffffffffffffffff163373ffffffffffffffffffffffffffffffffffffffff1614610167576040517f08c379a000000000000000000000000000000000000000000000000000000000815260040161015e9061038a565b60405180910390fd5b7f25ce3e1aa752ebf383e0a9e5fdb1a18c494dc9fbc615bd1f63dcb9a4d87dea9547426040516101989291906103aa565b60405180910390a1600160009054906101000a900473ffffffffffffffffffffffffffffffffffffffff1673ffffffffffffffffffffffffffffffffffffffff166108fc479081150290604051600060405180830381858888f19350505050158015610208573d6000803e3d6000fd5b50565b600160009054906101000a900473ffffffffffffffffffffffffffffffffffffffff1681565b6000819050919050565b61024481610231565b82525050565b600060208201905061025f600083018461023b565b92915050565b600073ffffffffffffffffffffffffffffffffffffffff82169050919050565b600061029082610265565b9050919050565b6102a081610285565b82525050565b60006020820190506102bb6000830184610297565b92915050565b600082825260208201905092915050565b7f576169742074696c6c2074686520706572696f64206973206f76657221000000600082015250565b6000610308601d836102c1565b9150610313826102d2565b602082019050919050565b60006020820190508181036000830152610337816102fb565b9050919050565b7f596f7520617265206e6f7420616e206f776e6572210000000000000000000000600082015250565b60006103746015836102c1565b915061037f8261033e565b602082019050919050565b600060208201905081810360008301526103a381610367565b9050919050565b60006040820190506103bf600083018561023b565b6103cc602083018461023b565b939250505056fea26469706673582212203261b75651c754902d6ecd735a4fa8c7841b44995ad4a67783a776c35bee831864736f6c634300081c0033",
  "linkReferences": {},
  "deployedLinkReferences": {}
}